:100000000C942A000C9447000C9447000C94470071
:100010000C9447000C9447000C9447000C94470044
:100020000C9447000C9447000C9447000C94470034
:100030000C9447000C9447000C9447000C94470024
:100040000C9447000C9447000C9447000C94470014
:100050000C94470011241FBECFE5D4E0DEBFCDBF16
:1000600011E0A0E6B0E0ECE7F6E002C005900D92EA
:10007000A030B107D9F711E0A0E0B1E001C01D92B6
:10008000A730B107E1F70E94DC010C943D030C940A
:1000900000005F9BFECF8CB19927089520E030E0EF
:1000A0000000000000000000000000000000000050
:1000B000000000002F5F3F4F8217930788F70895D5
:1000C000CF93DF93EC0108C08CB95E9BFECF2196E5
:1000D00088EE93E00E944E0088818823A9F7DF9183
:1000E000CF9108958CB95E9BFECF88EE93E00E947D
:1000F0004E000895DF92EF92FF920F931F93D82E38
:1001000064E60E940A03282F84E6E82E2E9D7001E3
:1001100011248D2D99278E199F096AE070E00E94A5
:1001200016038B01822F805D0E947200802F805DFC
:100130000E947200DE188AE0089FC0011124D81ABC
:100140008D2D805D0E9472001F910F91FF90EF90A6
:10015000DF900895109201012091000190E002C00B
:100160009F5F2BE09817E0F320930001909301012B
:100170000895AA9888EC0E94AA00AA9A88EC0E9486
:10018000AA00AA9808950F931F93082F85B3887F1C
:1001900085BB802F807F85BB0E94B90011270F701F
:1001A000107094E0000F111F9A95E1F705BB0E94B3
:1001B000B9001F910F9108951F93182F81E085BBFF
:1001C00015BA812F807F816085BB0E94B90012958E
:1001D000107F116015BB0E94B9001F910895EF9226
:1001E000FF920F931F93CF93DF937C0181E085BB38
:1001F00015BA00E010E014C0903119F480EC0E94B0
:10020000C3008881807F816085BB0E94B90088819E
:100210008295807F816085BB0E94B9000F5F1F4F70
:10022000902FE701C00FD11D8881882329F7DF9126
:10023000CF911F910F91FF90EF900895DF92EF9271
:10024000FF920F931F93D82E64E60E940A03282F73
:1002500034E6E32E8E9D700111248D2D99278E1981
:100260009F096AE070E00E9416038B01822F805D77
:100270000E94DC00802F805D0E94DC00DE188AE096
:10028000089FC0011124D81A8D2D805D0E94DC00CA
:100290001F910F91FF90EF90DF900895882329F42C
:1002A000862F80580E94C3000895813021F4862F44
:1002B00080540E94C300089509C020E030E000008F
:1002C0002F5F3F4F4CE02C3C3407C9F701972FEFCD
:1002D0008F3F920791F7089584E190E00E945C01BE
:1002E00085B3809302018FEF84BB8FE090E00E9482
:1002F0005C0180E285BB81E00E94C30082E00E9435
:10030000C30080E80E94C30084E190E00E945C0189
:10031000089581E00E94C300089510920601109292
:10032000050120E030E040E050E000000000000067
:1003300000000000000000000000000000000000BD
:1003400000004F5F5F4F63E04132560771F72F5F48
:100350003F4F8217930738F730930601209305012A
:10036000509304014093030108951BB888E18AB9B2
:1003700086E880BD10BC87E689B984E690E00E94DB
:100380008D010895109206011092050120E030E0E1
:10039000000000000000000000000000000000005D
:1003A000000000002F5F3F4F8217930788F73093BC
:1003B000060120930501089580EF87BB18BA0E94BB
:1003C000B50188EC90E00E948D010E946C011ABA80
:1003D0001BBA5F9BFECF8CB1873781F589B3992714
:1003E000807790708033910509F4D8C081339105EE
:1003F00064F48031910509F4D1C08032910509F48B
:10040000E1C0892B09F4F9C00CC08036910509F4CC
:10041000CFC08037910509F4B7C08034910509F445
:10042000C7C060E080E00E944E0180EB90E00E9437
:10043000EF0084E690E00E948D01AEC0813689F520
:1004400089B39927807790708033910509F4A6C00D
:100450008133910564F48031910509F49FC08032A5
:10046000910509F4AFC0892B09F4C7C00CC08036D0
:10047000910509F49DC08037910509F485C0803449
:10048000910509F495C060E080E00E944E0180EC87
:1004900090E00E94EF0084E690E00E948D0180E8E9
:1004A000B5C0853639F589B3992780779070803348
:1004B000910509F473C0813391053CF480319105B5
:1004C00009F46CC0809749F47DC08034910509F42B
:1004D0006FC08036910509F46BC060E080E00E9437
:1004E0004E0180ED90E00E94EF0084E690E00E94D3
:1004F0008D0166C0813739F589B39927807790706F
:100500008033910509F44AC0813391053CF4803170
:10051000910509F443C0809749F454C08034910593
:1005200009F446C08036910509F442C060E080E0DD
:100530000E944E0180EE90E00E94EF0084E690E081
:100540000E948D0133C0843609F054C089B39927C5
:10055000807790708033910509F18133910554F4CF
:1005600080319105D9F08032910561F1892B09F430
:1005700044C032C080369105D9F08037910521F012
:100580008034910549F514C060E080E00E944E017E
:1005900080E690E00E94EF0080EA38C060E080E0F2
:1005A0000E944E0180E890E00E94EF0080E92EC09A
:1005B00060E080E00E944E0180E990E00E94EF0040
:1005C00080E624C060E080E00E944E0180EA90E076
:1005D0000E94EF0018BA1BC060E080E00E944E014C
:1005E00080EF90E00E94EF0084E690E00E948D0191
:1005F00080E20CC0833709F0ECCE60E080E00E941E
:100600004E0180E790E00E94EF0080E588BB80E02B
:1006100090E00895991B79E004C0991F961708F09F
:10062000961B881F7A95C9F78095089597FB092E28
:1006300007260AD077FD04D00CD006D000201AF48B
:10064000709561957F4F0895F6F7909581959F4F2E
:100650000895AA1BBB1B51E107C0AA1FBB1FA61709
:10066000B70710F0A61BB70B881F991F5A95A9F75B
:0C06700080959095BC01CD010895FFCF4E
:10067C004D6F76696E6720466F72776172642000E9
:10068C004D6F76696E67204261636B7761726400AF
:10069C005475726E696E67204C656674202020005C
:1006AC005475726E696E67205269676874202000F9
:1006BC004F62737461636C6520466F756E642000C5
:1006CC00204D6F76696E6720466F72776172640099
:1006DC00205475726E696E67204C6566742020001C
:1006EC005370696E6E696E6720526967687420007A
:1006FC00205370696E6E696E67204C6566742000BD
:10070C00205475726E696E67205269676874200098
:00000001FF
